{
  "_format": "hh-sol-artifact-1",
  "contractName": "ConsumerInterface",
  "sourceName": "contracts/ConsumerInterface.sol",
  "abi": [
    {
      "inputs": [
        {
          "internalType": "address",
          "name": "_productRegistryAddress",
          "type": "address"
        },
        {
          "internalType": "address",
          "name": "_supplyChainTrackerAddress",
          "type": "address"
        }
      ],
      "stateMutability": "nonpayable",
      "type": "constructor"
    },
    {
      "inputs": [],
      "name": "InvalidContractAddress",
      "type": "error"
    },
    {
      "inputs": [
        {
          "internalType": "bytes32",
          "name": "productId",
          "type": "bytes32"
        }
      ],
      "name": "getProductDetails",
      "outputs": [
        {
          "internalType": "bytes32",
          "name": "",
          "type": "bytes32"
        },
        {
          "internalType": "string",
          "name": "",
          "type": "string"
        },
        {
          "internalType": "address",
          "name": "",
          "type": "address"
        },
        {
          "internalType": "uint256",
          "name": "",
          "type": "uint256"
        }
      ],
      "stateMutability": "view",
      "type": "function"
    },
    {
      "inputs": [
        {
          "internalType": "bytes32",
          "name": "productId",
          "type": "bytes32"
        }
      ],
      "name": "getProductMilestones",
      "outputs": [
        {
          "components": [
            {
              "internalType": "string",
              "name": "milestoneType",
              "type": "string"
            },
            {
              "internalType": "string",
              "name": "details",
              "type": "string"
            },
            {
              "internalType": "uint256",
              "name": "timestamp",
              "type": "uint256"
            },
            {
              "internalType": "address",
              "name": "participant",
              "type": "address"
            }
          ],
          "internalType": "struct ISupplyChainTracker.Milestone[]",
          "name": "",
          "type": "tuple[]"
        }
      ],
      "stateMutability": "view",
      "type": "function"
    },
    {
      "inputs": [
        {
          "internalType": "bytes32",
          "name": "productId",
          "type": "bytes32"
        }
      ],
      "name": "productExists",
      "outputs": [
        {
          "internalType": "bool",
          "name": "",
          "type": "bool"
        }
      ],
      "stateMutability": "view",
      "type": "function"
    },
    {
      "inputs": [],
      "name": "productRegistry",
      "outputs": [
        {
          "internalType": "contract IProductRegistry",
          "name": "",
          "type": "address"
        }
      ],
      "stateMutability": "view",
      "type": "function"
    },
    {
      "inputs": [],
      "name": "supplyChainTracker",
      "outputs": [
        {
          "internalType": "contract ISupplyChainTracker",
          "name": "",
          "type": "address"
        }
      ],
      "stateMutability": "view",
      "type": "function"
    }
  ],
  "bytecode": "0x60c060405234801561001057600080fd5b5060405161085538038061085583398101604081905261002f9161009d565b6001600160a01b038216158061004c57506001600160a01b038116155b1561006a5760405163a710429d60e01b815260040160405180910390fd5b6001600160a01b039182166080521660a0526100d0565b80516001600160a01b038116811461009857600080fd5b919050565b600080604083850312156100b057600080fd5b6100b983610081565b91506100c760208401610081565b90509250929050565b60805160a05161074c6101096000396000818160cc01526101d801526000818161010b015281816101460152610258015261074c6000f3fe608060405234801561001057600080fd5b50600436106100575760003560e01c80634d4721161461005c57806385f7faa514610084578063b74d3fb5146100a4578063cb45cd1b146100c7578063fff218c314610106575b600080fd5b61006f61006a3660046102f8565b61012d565b60405190151581526020015b60405180910390f35b6100976100923660046102f8565b6101bf565b60405161007b9190610361565b6100b76100b23660046102f8565b61024f565b60405161007b949392919061040a565b6100ee7f000000000000000000000000000000000000000000000000000000000000000081565b6040516001600160a01b03909116815260200161007b565b6100ee7f000000000000000000000000000000000000000000000000000000000000000081565b6040516326a3908b60e11b8152600481018290526000907f00000000000000000000000000000000000000000000000000000000000000006001600160a01b031690634d47211690602401602060405180830381865afa158015610195573d6000803e3d6000fd5b505050506040513d601f19601f820116820180604052508101906101b9919061043f565b92915050565b6040516385f7faa560e01b8152600481018290526060907f00000000000000000000000000000000000000000000000000000000000000006001600160a01b0316906385f7faa590602401600060405180830381865afa158015610227573d6000803e3d6000fd5b505050506040513d6000823e601f3d908101601f191682016040526101b99190810190610560565b600060606000807f00000000000000000000000000000000000000000000000000000000000000006001600160a01b031663b74d3fb5866040518263ffffffff1660e01b81526004016102a491815260200190565b600060405180830381865afa1580156102c1573d6000803e3d6000fd5b505050506040513d6000823e601f3d908101601f191682016040526102e991908101906106b7565b93509350935093509193509193565b60006020828403121561030a57600080fd5b5035919050565b60005b8381101561032c578181015183820152602001610314565b50506000910152565b6000815180845261034d816020860160208601610311565b601f01601f19169290920160200192915050565b6000602082016020835280845180835260408501915060408160051b86010192506020860160005b828110156103fe57603f1987860301845281518051608087526103af6080880182610335565b9050602082015187820360208901526103c88282610335565b604084810151908a01526060938401516001600160a01b0316939098019290925250506020938401939190910190600101610389565b50929695505050505050565b8481526080602082015260006104236080830186610335565b6001600160a01b03949094166040830152506060015292915050565b60006020828403121561045157600080fd5b8151801515811461046157600080fd5b9392505050565b634e487b7160e01b600052604160045260246000fd5b6040516080810167ffffffffffffffff811182821017156104a1576104a1610468565b60405290565b604051601f8201601f1916810167ffffffffffffffff811182821017156104d0576104d0610468565b604052919050565b600082601f8301126104e957600080fd5b815167ffffffffffffffff81111561050357610503610468565b610516601f8201601f19166020016104a7565b81815284602083860101111561052b57600080fd5b61053c826020830160208701610311565b949350505050565b80516001600160a01b038116811461055b57600080fd5b919050565b60006020828403121561057257600080fd5b815167ffffffffffffffff81111561058957600080fd5b8201601f8101841361059a57600080fd5b805167ffffffffffffffff8111156105b4576105b4610468565b8060051b6105c4602082016104a7565b918252602081840181019290810190878411156105e057600080fd5b6020850192505b838310156106ac57825167ffffffffffffffff81111561060657600080fd5b85016080818a03601f1901121561061c57600080fd5b61062461047e565b602082015167ffffffffffffffff81111561063e57600080fd5b61064d8b6020838601016104d8565b825250604082015167ffffffffffffffff81111561066a57600080fd5b6106798b6020838601016104d8565b6020830152506060820151604082015261069560808301610544565b6060820152835250602092830192909101906105e7565b979650505050505050565b600080600080608085870312156106cd57600080fd5b84519350602085015167ffffffffffffffff8111156106eb57600080fd5b6106f7878288016104d8565b93505061070660408601610544565b606095909501519396929550505056fea26469706673582212204cdb5731f68aa6aee3469683ef1bd8c8ede621b521b63d60cb78e30902769ad164736f6c634300081c0033",
  "linkReferences": {},
  "deployedLinkReferences": {}
}