{
  "_format": "hh-sol-artifact-1",
  "contractName": "ProductRegistry",
  "sourceName": "contracts/ProductRegistry.sol",
  "abi": [
    {
      "inputs": [
        {
          "internalType": "address",
          "name": "_verificationSystemAddress",
          "type": "address"
        }
      ],
      "stateMutability": "nonpayable",
      "type": "constructor"
    },
    {
      "inputs": [
        {
          "internalType": "address",
          "name": "caller",
          "type": "address"
        }
      ],
      "name": "NotVerifiedManufacturer",
      "type": "error"
    },
    {
      "inputs": [
        {
          "internalType": "bytes32",
          "name": "productId",
          "type": "bytes32"
        }
      ],
      "name": "ProductAlreadyExists",
      "type": "error"
    },
    {
      "inputs": [
        {
          "internalType": "bytes32",
          "name": "productId",
          "type": "bytes32"
        }
      ],
      "name": "ProductNotFound",
      "type": "error"
    },
    {
      "anonymous": false,
      "inputs": [
        {
          "indexed": true,
          "internalType": "bytes32",
          "name": "productId",
          "type": "bytes32"
        },
        {
          "indexed": true,
          "internalType": "address",
          "name": "manufacturer",
          "type": "address"
        }
      ],
      "name": "ProductRegistered",
      "type": "event"
    },
    {
      "inputs": [],
      "name": "MANUFACTURER_ROLE",
      "outputs": [
        {
          "internalType": "bytes32",
          "name": "",
          "type": "bytes32"
        }
      ],
      "stateMutability": "view",
      "type": "function"
    },
    {
      "inputs": [
        {
          "internalType": "bytes32",
          "name": "productId",
          "type": "bytes32"
        }
      ],
      "name": "getProductDetails",
      "outputs": [
        {
          "internalType": "bytes32",
          "name": "",
          "type": "bytes32"
        },
        {
          "internalType": "string",
          "name": "",
          "type": "string"
        },
        {
          "internalType": "address",
          "name": "",
          "type": "address"
        },
        {
          "internalType": "uint256",
          "name": "",
          "type": "uint256"
        }
      ],
      "stateMutability": "view",
      "type": "function"
    },
    {
      "inputs": [
        {
          "internalType": "bytes32",
          "name": "productId",
          "type": "bytes32"
        }
      ],
      "name": "productExists",
      "outputs": [
        {
          "internalType": "bool",
          "name": "",
          "type": "bool"
        }
      ],
      "stateMutability": "view",
      "type": "function"
    },
    {
      "inputs": [
        {
          "internalType": "bytes32",
          "name": "productId",
          "type": "bytes32"
        },
        {
          "internalType": "string",
          "name": "name",
          "type": "string"
        },
        {
          "internalType": "address",
          "name": "manufacturer",
          "type": "address"
        }
      ],
      "name": "registerProduct",
      "outputs": [],
      "stateMutability": "nonpayable",
      "type": "function"
    },
    {
      "inputs": [],
      "name": "verificationSystem",
      "outputs": [
        {
          "internalType": "contract IVerificationSystem",
          "name": "",
          "type": "address"
        }
      ],
      "stateMutability": "view",
      "type": "function"
    }
  ],
  "bytecode": "0x60a060405234801561001057600080fd5b5060405161088a38038061088a83398101604081905261002f916100a5565b6001600160a01b0381166100945760405162461bcd60e51b815260206004820152602260248201527f496e76616c696420566572696669636174696f6e53797374656d206164647265604482015261737360f01b606482015260840160405180910390fd5b6001600160a01b03166080526100d5565b6000602082840312156100b757600080fd5b81516001600160a01b03811681146100ce57600080fd5b9392505050565b6080516107936100f760003960008181610108015261017d01526107936000f3fe608060405234801561001057600080fd5b50600436106100575760003560e01c80630c1dd96d1461005c5780634d47211614610071578063965288b0146100ab578063b74d3fb5146100e0578063ef659dc514610103575b600080fd5b61006f61006a3660046104b3565b610142565b005b61009661007f366004610550565b600090815260208190526040902060030154151590565b60405190151581526020015b60405180910390f35b6100d27feefb95e842a3287179d933b4460be539a1d5af11aa8b325bb45c5c8dc92de4ed81565b6040519081526020016100a2565b6100f36100ee366004610550565b610387565b6040516100a29493929190610569565b61012a7f000000000000000000000000000000000000000000000000000000000000000081565b6040516001600160a01b0390911681526020016100a2565b60405163511d983f60e01b81523360048201527feefb95e842a3287179d933b4460be539a1d5af11aa8b325bb45c5c8dc92de4ed60248201527f00000000000000000000000000000000000000000000000000000000000000006001600160a01b03169063511d983f90604401602060405180830381865afa1580156101cc573d6000803e3d6000fd5b505050506040513d601f19601f820116820180604052508101906101f091906105d6565b61021457604051638b65ba9360e01b81523360048201526024015b60405180910390fd5b6000848152602081905260409020600301541561024757604051633cef866760e01b81526004810185905260240161020b565b6001600160a01b03811661029d5760405162461bcd60e51b815260206004820152601c60248201527f496e76616c6964206d616e756661637475726572206164647265737300000000604482015260640161020b565b604051806080016040528085815260200184848080601f01602080910402602001604051908101604052809392919081815260200183838082843760009201829052509385525050506001600160a01b0384166020808401919091524260409384015287825281815291902082518155908201516001820190610320908261069e565b506040828101516002830180546001600160a01b0319166001600160a01b03928316179055606090930151600390920191909155519082169085907fc9484fe818367891478f62bbffa32d87f515bbcb8e28e2106e62c73335747baa90600090a350505050565b600060606000806000806000878152602001908152602001600020604051806080016040529081600082015481526020016001820180546103c790610615565b80601f01602080910402602001604051908101604052809291908181526020018280546103f390610615565b80156104405780601f1061041557610100808354040283529160200191610440565b820191906000526020600020905b81548152906001019060200180831161042357829003601f168201915b505050918352505060028201546001600160a01b0316602082015260039091015460409091015260608101519091506000036104925760405163b9780c7f60e01b81526004810187905260240161020b565b80516020820151604083015160609093015191989097509195509350915050565b600080600080606085870312156104c957600080fd5b84359350602085013567ffffffffffffffff8111156104e757600080fd5b8501601f810187136104f857600080fd5b803567ffffffffffffffff81111561050f57600080fd5b87602082840101111561052157600080fd5b6020919091019350915060408501356001600160a01b038116811461054557600080fd5b939692955090935050565b60006020828403121561056257600080fd5b5035919050565b848152608060208201526000845180608084015260005b8181101561059d57602081880181015160a0868401015201610580565b50600060a08285018101919091526001600160a01b03959095166040840152606083019390935250601f909101601f1916010192915050565b6000602082840312156105e857600080fd5b815180151581146105f857600080fd5b9392505050565b634e487b7160e01b600052604160045260246000fd5b600181811c9082168061062957607f821691505b60208210810361064957634e487b7160e01b600052602260045260246000fd5b50919050565b601f82111561069957806000526020600020601f840160051c810160208510156106765750805b601f840160051c820191505b818110156106965760008155600101610682565b50505b505050565b815167ffffffffffffffff8111156106b8576106b86105ff565b6106cc816106c68454610615565b8461064f565b6020601f82116001811461070057600083156106e85750848201515b600019600385901b1c1916600184901b178455610696565b600084815260208120601f198516915b828110156107305787850151825560209485019460019092019101610710565b508482101561074e5786840151600019600387901b60f8161c191681555b50505050600190811b0190555056fea264697066735822122093d693483da1b298e3bf6ebb2b8c9f6be31765b21d13e7926c655d2d9b838f5c64736f6c634300081c0033",
  "linkReferences": {},
  "deployedLinkReferences": {}
}