{
  "_format": "hh-sol-artifact-1",
  "contractName": "SupplyChainTracker",
  "sourceName": "contracts/SupplyChainTracker.sol",
  "abi": [
    {
      "inputs": [
        {
          "internalType": "address",
          "name": "_productRegistryAddress",
          "type": "address"
        },
        {
          "internalType": "address",
          "name": "_verificationSystemAddress",
          "type": "address"
        }
      ],
      "stateMutability": "nonpayable",
      "type": "constructor"
    },
    {
      "inputs": [],
      "name": "EmptyMilestoneDetails",
      "type": "error"
    },
    {
      "inputs": [],
      "name": "EmptyMilestoneType",
      "type": "error"
    },
    {
      "inputs": [
        {
          "internalType": "uint256",
          "name": "timestamp",
          "type": "uint256"
        }
      ],
      "name": "InvalidTimestamp",
      "type": "error"
    },
    {
      "inputs": [
        {
          "internalType": "address",
          "name": "caller",
          "type": "address"
        }
      ],
      "name": "NotVerifiedSupplier",
      "type": "error"
    },
    {
      "inputs": [
        {
          "internalType": "bytes32",
          "name": "productId",
          "type": "bytes32"
        }
      ],
      "name": "ProductNotFound",
      "type": "error"
    },
    {
      "anonymous": false,
      "inputs": [
        {
          "indexed": true,
          "internalType": "bytes32",
          "name": "productId",
          "type": "bytes32"
        },
        {
          "indexed": true,
          "internalType": "uint256",
          "name": "milestoneIndex",
          "type": "uint256"
        },
        {
          "indexed": true,
          "internalType": "address",
          "name": "participant",
          "type": "address"
        }
      ],
      "name": "MilestoneAdded",
      "type": "event"
    },
    {
      "inputs": [],
      "name": "SUPPLIER_ROLE",
      "outputs": [
        {
          "internalType": "bytes32",
          "name": "",
          "type": "bytes32"
        }
      ],
      "stateMutability": "view",
      "type": "function"
    },
    {
      "inputs": [
        {
          "internalType": "bytes32",
          "name": "productId",
          "type": "bytes32"
        },
        {
          "internalType": "string",
          "name": "milestoneType",
          "type": "string"
        },
        {
          "internalType": "string",
          "name": "details",
          "type": "string"
        },
        {
          "internalType": "uint256",
          "name": "timestamp",
          "type": "uint256"
        }
      ],
      "name": "addMilestone",
      "outputs": [],
      "stateMutability": "nonpayable",
      "type": "function"
    },
    {
      "inputs": [
        {
          "internalType": "bytes32",
          "name": "productId",
          "type": "bytes32"
        },
        {
          "internalType": "uint256",
          "name": "index",
          "type": "uint256"
        }
      ],
      "name": "getMilestoneAtIndex",
      "outputs": [
        {
          "internalType": "string",
          "name": "milestoneType",
          "type": "string"
        },
        {
          "internalType": "string",
          "name": "details",
          "type": "string"
        },
        {
          "internalType": "uint256",
          "name": "timestamp",
          "type": "uint256"
        },
        {
          "internalType": "address",
          "name": "participant",
          "type": "address"
        }
      ],
      "stateMutability": "view",
      "type": "function"
    },
    {
      "inputs": [
        {
          "internalType": "bytes32",
          "name": "productId",
          "type": "bytes32"
        }
      ],
      "name": "getMilestoneCount",
      "outputs": [
        {
          "internalType": "uint256",
          "name": "",
          "type": "uint256"
        }
      ],
      "stateMutability": "view",
      "type": "function"
    },
    {
      "inputs": [
        {
          "internalType": "bytes32",
          "name": "productId",
          "type": "bytes32"
        }
      ],
      "name": "getProductMilestones",
      "outputs": [
        {
          "components": [
            {
              "internalType": "string",
              "name": "milestoneType",
              "type": "string"
            },
            {
              "internalType": "string",
              "name": "details",
              "type": "string"
            },
            {
              "internalType": "uint256",
              "name": "timestamp",
              "type": "uint256"
            },
            {
              "internalType": "address",
              "name": "participant",
              "type": "address"
            }
          ],
          "internalType": "struct SupplyChainTracker.Milestone[]",
          "name": "",
          "type": "tuple[]"
        }
      ],
      "stateMutability": "view",
      "type": "function"
    },
    {
      "inputs": [],
      "name": "productRegistry",
      "outputs": [
        {
          "internalType": "contract IProductRegistry",
          "name": "",
          "type": "address"
        }
      ],
      "stateMutability": "view",
      "type": "function"
    },
    {
      "inputs": [],
      "name": "verificationSystem",
      "outputs": [
        {
          "internalType": "contract IVerificationSystem",
          "name": "",
          "type": "address"
        }
      ],
      "stateMutability": "view",
      "type": "function"
    }
  ],
  "bytecode": "0x60c060405234801561001057600080fd5b50604051610fd7380380610fd783398101604081905261002f9161011e565b6001600160a01b03821661008a5760405162461bcd60e51b815260206004820152601f60248201527f496e76616c69642050726f64756374526567697374727920616464726573730060448201526064015b60405180910390fd5b6001600160a01b0381166100eb5760405162461bcd60e51b815260206004820152602260248201527f496e76616c696420566572696669636174696f6e53797374656d206164647265604482015261737360f01b6064820152608401610081565b6001600160a01b039182166080521660a052610151565b80516001600160a01b038116811461011957600080fd5b919050565b6000806040838503121561013157600080fd5b61013a83610102565b915061014860208401610102565b90509250929050565b60805160a051610e4c61018b6000396000818161013901526101d50152600081816101780152818161028201526104f10152610e4c6000f3fe608060405234801561001057600080fd5b506004361061007d5760003560e01c8063a29508fc1161005b578063a29508fc146100ea578063b65a537c14610111578063ef659dc514610134578063fff218c31461017357600080fd5b80630a0dce7c146100825780634398ea49146100b557806385f7faa5146100ca575b600080fd5b6100a2610090366004610918565b60009081526020819052604090205490565b6040519081526020015b60405180910390f35b6100c86100c336600461097a565b61019a565b005b6100dd6100d8366004610918565b6104d8565b6040516100ac9190610a51565b6100a27fd1ae8bbdabd60d63e418b84f5ad6f9cba90092c9816d7724d85f0d4e4bea2c6081565b61012461011f366004610afa565b610735565b6040516100ac9493929190610b1c565b61015b7f000000000000000000000000000000000000000000000000000000000000000081565b6040516001600160a01b0390911681526020016100ac565b61015b7f000000000000000000000000000000000000000000000000000000000000000081565b60405163511d983f60e01b81523360048201527fd1ae8bbdabd60d63e418b84f5ad6f9cba90092c9816d7724d85f0d4e4bea2c6060248201527f00000000000000000000000000000000000000000000000000000000000000006001600160a01b03169063511d983f90604401602060405180830381865afa158015610224573d6000803e3d6000fd5b505050506040513d601f19601f820116820180604052508101906102489190610b63565b61026c57604051633783673760e11b81523360048201526024015b60405180910390fd5b60405163b74d3fb560e01b8152600481018790527f00000000000000000000000000000000000000000000000000000000000000006001600160a01b03169063b74d3fb590602401600060405180830381865afa9250505080156102f257506040513d6000823e601f3d908101601f191682016040526102ef9190810190610bb9565b60015b6103125760405163b9780c7f60e01b815260048101879052602401610263565b505050504281111561033a576040516304b8410560e31b815260048101829052602401610263565b600084900361035c576040516349e885fb60e01b815260040160405180910390fd5b600082900361037e576040516317f1c21f60e11b815260040160405180910390fd5b6040805160a06020601f88018190040282018101909252608081018681526000928291908990899081908501838280828437600092019190915250505090825250604080516020601f88018190048102820181019092528681529181019190879087908190840183828082843760009201829052509385525050506020808301869052336040938401528a82528181529181208054600181018255908252919020825192935083926004909202019081906104399082610d1a565b506020820151600182019061044e9082610d1a565b506040828101516002830155606090920151600390910180546001600160a01b0319166001600160a01b03909216919091179055600088815260208190529081205461049c90600190610dd9565b604051909150339082908a907f4c0dde291f23b6b06d302a4f7fdf24258b763d15f71e43505e852e9e98332f0690600090a45050505050505050565b60405163b74d3fb560e01b8152600481018290526060907f00000000000000000000000000000000000000000000000000000000000000006001600160a01b03169063b74d3fb590602401600060405180830381865afa92505050801561056157506040513d6000823e601f3d908101601f1916820160405261055e9190810190610bb9565b60015b6105815760405163b9780c7f60e01b815260048101839052602401610263565b60008681526020818152604080832080548251818502810185019093528083529193909284015b8282101561072157838290600052602060002090600402016040518060800160405290816000820180546105db90610c91565b80601f016020809104026020016040519081016040528092919081815260200182805461060790610c91565b80156106545780601f1061062957610100808354040283529160200191610654565b820191906000526020600020905b81548152906001019060200180831161063757829003601f168201915b5050505050815260200160018201805461066d90610c91565b80601f016020809104026020016040519081016040528092919081815260200182805461069990610c91565b80156106e65780601f106106bb576101008083540402835291602001916106e6565b820191906000526020600020905b8154815290600101906020018083116106c957829003601f168201915b505050918352505060028201546020808301919091526003909201546001600160a01b031660409091015290825260019290920191016105a8565b50505050945050505050919050565b919050565b6000828152602081905260408120546060918291819085106107995760405162461bcd60e51b815260206004820152601d60248201527f4d696c6573746f6e6520696e646578206f7574206f6620626f756e64730000006044820152606401610263565b60008681526020819052604081208054879081106107b9576107b9610e00565b90600052602060002090600402019050806000018160010182600201548360030160009054906101000a90046001600160a01b03168380546107fa90610c91565b80601f016020809104026020016040519081016040528092919081815260200182805461082690610c91565b80156108735780601f1061084857610100808354040283529160200191610873565b820191906000526020600020905b81548152906001019060200180831161085657829003601f168201915b5050505050935082805461088690610c91565b80601f01602080910402602001604051908101604052809291908181526020018280546108b290610c91565b80156108ff5780601f106108d4576101008083540402835291602001916108ff565b820191906000526020600020905b8154815290600101906020018083116108e257829003601f168201915b5050505050925094509450945094505092959194509250565b60006020828403121561092a57600080fd5b5035919050565b60008083601f84011261094357600080fd5b50813567ffffffffffffffff81111561095b57600080fd5b60208301915083602082850101111561097357600080fd5b9250929050565b6000806000806000806080878903121561099357600080fd5b86359550602087013567ffffffffffffffff8111156109b157600080fd5b6109bd89828a01610931565b909650945050604087013567ffffffffffffffff8111156109dd57600080fd5b6109e989828a01610931565b979a9699509497949695606090950135949350505050565b60005b83811015610a1c578181015183820152602001610a04565b50506000910152565b60008151808452610a3d816020860160208601610a01565b601f01601f19169290920160200192915050565b6000602082016020835280845180835260408501915060408160051b86010192506020860160005b82811015610aee57603f198786030184528151805160808752610a9f6080880182610a25565b905060208201518782036020890152610ab88282610a25565b604084810151908a01526060938401516001600160a01b0316939098019290925250506020938401939190910190600101610a79565b50929695505050505050565b60008060408385031215610b0d57600080fd5b50508035926020909101359150565b608081526000610b2f6080830187610a25565b8281036020840152610b418187610a25565b604084019590955250506001600160a01b039190911660609091015292915050565b600060208284031215610b7557600080fd5b81518015158114610b8557600080fd5b9392505050565b634e487b7160e01b600052604160045260246000fd5b80516001600160a01b038116811461073057600080fd5b60008060008060808587031215610bcf57600080fd5b84519350602085015167ffffffffffffffff811115610bed57600080fd5b8501601f81018713610bfe57600080fd5b805167ffffffffffffffff811115610c1857610c18610b8c565b604051601f8201601f19908116603f0116810167ffffffffffffffff81118282101715610c4757610c47610b8c565b604052818152828201602001891015610c5f57600080fd5b610c70826020830160208601610a01565b9450610c8191505060408601610ba2565b6060959095015193969295505050565b600181811c90821680610ca557607f821691505b602082108103610cc557634e487b7160e01b600052602260045260246000fd5b50919050565b601f821115610d1557806000526020600020601f840160051c81016020851015610cf25750805b601f840160051c820191505b81811015610d125760008155600101610cfe565b50505b505050565b815167ffffffffffffffff811115610d3457610d34610b8c565b610d4881610d428454610c91565b84610ccb565b6020601f821160018114610d7c5760008315610d645750848201515b600019600385901b1c1916600184901b178455610d12565b600084815260208120601f198516915b82811015610dac5787850151825560209485019460019092019101610d8c565b5084821015610dca5786840151600019600387901b60f8161c191681555b50505050600190811b01905550565b81810381811115610dfa57634e487b7160e01b600052601160045260246000fd5b92915050565b634e487b7160e01b600052603260045260246000fdfea2646970667358221220ad98696511ea760fd2745f543675320293e48d0002d3398e352c84b0f0ed38c264736f6c634300081c0033",
  "linkReferences": {},
  "deployedLinkReferences": {}
}